{
  "_format": "hh-sol-artifact-1",
  "contractName": "Pandas",
  "sourceName": "contracts/Pandas.sol",
  "abi": [
    {
      "inputs": [
        {
          "internalType": "address",
          "name": "initialOwner",
          "type": "address"
        }
      ],
      "stateMutability": "nonpayable",
      "type": "constructor"
    },
    {
      "inputs": [],
      "name": "ECDSAInvalidSignature",
      "type": "error"
    },
    {
      "inputs": [
        {
          "internalType": "uint256",
          "name": "length",
          "type": "uint256"
        }
      ],
      "name": "ECDSAInvalidSignatureLength",
      "type": "error"
    },
    {
      "inputs": [
        {
          "internalType": "bytes32",
          "name": "s",
          "type": "bytes32"
        }
      ],
      "name": "ECDSAInvalidSignatureS",
      "type": "error"
    },
    {
      "inputs": [
        {
          "internalType": "address",
          "name": "spender",
          "type": "address"
        },
        {
          "internalType": "uint256",
          "name": "allowance",
          "type": "uint256"
        },
        {
          "internalType": "uint256",
          "name": "needed",
          "type": "uint256"
        }
      ],
      "name": "ERC20InsufficientAllowance",
      "type": "error"
    },
    {
      "inputs": [
        {
          "internalType": "address",
          "name": "sender",
          "type": "address"
        },
        {
          "internalType": "uint256",
          "name": "balance",
          "type": "uint256"
        },
        {
          "internalType": "uint256",
          "name": "needed",
          "type": "uint256"
        }
      ],
      "name": "ERC20InsufficientBalance",
      "type": "error"
    },
    {
      "inputs": [
        {
          "internalType": "address",
          "name": "approver",
          "type": "address"
        }
      ],
      "name": "ERC20InvalidApprover",
      "type": "error"
    },
    {
      "inputs": [
        {
          "internalType": "address",
          "name": "receiver",
          "type": "address"
        }
      ],
      "name": "ERC20InvalidReceiver",
      "type": "error"
    },
    {
      "inputs": [
        {
          "internalType": "address",
          "name": "sender",
          "type": "address"
        }
      ],
      "name": "ERC20InvalidSender",
      "type": "error"
    },
    {
      "inputs": [
        {
          "internalType": "address",
          "name": "spender",
          "type": "address"
        }
      ],
      "name": "ERC20InvalidSpender",
      "type": "error"
    },
    {
      "inputs": [
        {
          "internalType": "uint256",
          "name": "deadline",
          "type": "uint256"
        }
      ],
      "name": "ERC2612ExpiredSignature",
      "type": "error"
    },
    {
      "inputs": [
        {
          "internalType": "address",
          "name": "signer",
          "type": "address"
        },
        {
          "internalType": "address",
          "name": "owner",
          "type": "address"
        }
      ],
      "name": "ERC2612InvalidSigner",
      "type": "error"
    },
    {
      "inputs": [
        {
          "internalType": "address",
          "name": "account",
          "type": "address"
        },
        {
          "internalType": "uint256",
          "name": "currentNonce",
          "type": "uint256"
        }
      ],
      "name": "InvalidAccountNonce",
      "type": "error"
    },
    {
      "inputs": [],
      "name": "InvalidShortString",
      "type": "error"
    },
    {
      "inputs": [
        {
          "internalType": "address",
          "name": "owner",
          "type": "address"
        }
      ],
      "name": "OwnableInvalidOwner",
      "type": "error"
    },
    {
      "inputs": [
        {
          "internalType": "address",
          "name": "account",
          "type": "address"
        }
      ],
      "name": "OwnableUnauthorizedAccount",
      "type": "error"
    },
    {
      "inputs": [
        {
          "internalType": "string",
          "name": "str",
          "type": "string"
        }
      ],
      "name": "StringTooLong",
      "type": "error"
    },
    {
      "anonymous": false,
      "inputs": [
        {
          "indexed": true,
          "internalType": "address",
          "name": "owner",
          "type": "address"
        },
        {
          "indexed": true,
          "internalType": "address",
          "name": "spender",
          "type": "address"
        },
        {
          "indexed": false,
          "internalType": "uint256",
          "name": "value",
          "type": "uint256"
        }
      ],
      "name": "Approval",
      "type": "event"
    },
    {
      "anonymous": false,
      "inputs": [],
      "name": "EIP712DomainChanged",
      "type": "event"
    },
    {
      "anonymous": false,
      "inputs": [
        {
          "indexed": true,
          "internalType": "address",
          "name": "previousOwner",
          "type": "address"
        },
        {
          "indexed": true,
          "internalType": "address",
          "name": "newOwner",
          "type": "address"
        }
      ],
      "name": "OwnershipTransferred",
      "type": "event"
    },
    {
      "anonymous": false,
      "inputs": [
        {
          "indexed": true,
          "internalType": "address",
          "name": "from",
          "type": "address"
        },
        {
          "indexed": true,
          "internalType": "address",
          "name": "to",
          "type": "address"
        },
        {
          "indexed": false,
          "internalType": "uint256",
          "name": "value",
          "type": "uint256"
        }
      ],
      "name": "Transfer",
      "type": "event"
    },
    {
      "inputs": [],
      "name": "DOMAIN_SEPARATOR",
      "outputs": [
        {
          "internalType": "bytes32",
          "name": "",
          "type": "bytes32"
        }
      ],
      "stateMutability": "view",
      "type": "function"
    },
    {
      "inputs": [
        {
          "internalType": "address",
          "name": "owner",
          "type": "address"
        },
        {
          "internalType": "address",
          "name": "spender",
          "type": "address"
        }
      ],
      "name": "allowance",
      "outputs": [
        {
          "internalType": "uint256",
          "name": "",
          "type": "uint256"
        }
      ],
      "stateMutability": "view",
      "type": "function"
    },
    {
      "inputs": [
        {
          "internalType": "address",
          "name": "spender",
          "type": "address"
        },
        {
          "internalType": "uint256",
          "name": "value",
          "type": "uint256"
        }
      ],
      "name": "approve",
      "outputs": [
        {
          "internalType": "bool",
          "name": "",
          "type": "bool"
        }
      ],
      "stateMutability": "nonpayable",
      "type": "function"
    },
    {
      "inputs": [
        {
          "internalType": "address",
          "name": "account",
          "type": "address"
        }
      ],
      "name": "balanceOf",
      "outputs": [
        {
          "internalType": "uint256",
          "name": "",
          "type": "uint256"
        }
      ],
      "stateMutability": "view",
      "type": "function"
    },
    {
      "inputs": [
        {
          "internalType": "address",
          "name": "from",
          "type": "address"
        },
        {
          "internalType": "uint256",
          "name": "amount",
          "type": "uint256"
        }
      ],
      "name": "burn",
      "outputs": [],
      "stateMutability": "nonpayable",
      "type": "function"
    },
    {
      "inputs": [],
      "name": "decimals",
      "outputs": [
        {
          "internalType": "uint8",
          "name": "",
          "type": "uint8"
        }
      ],
      "stateMutability": "view",
      "type": "function"
    },
    {
      "inputs": [],
      "name": "eip712Domain",
      "outputs": [
        {
          "internalType": "bytes1",
          "name": "fields",
          "type": "bytes1"
        },
        {
          "internalType": "string",
          "name": "name",
          "type": "string"
        },
        {
          "internalType": "string",
          "name": "version",
          "type": "string"
        },
        {
          "internalType": "uint256",
          "name": "chainId",
          "type": "uint256"
        },
        {
          "internalType": "address",
          "name": "verifyingContract",
          "type": "address"
        },
        {
          "internalType": "bytes32",
          "name": "salt",
          "type": "bytes32"
        },
        {
          "internalType": "uint256[]",
          "name": "extensions",
          "type": "uint256[]"
        }
      ],
      "stateMutability": "view",
      "type": "function"
    },
    {
      "inputs": [
        {
          "internalType": "address",
          "name": "account",
          "type": "address"
        }
      ],
      "name": "getBalance",
      "outputs": [
        {
          "internalType": "uint256",
          "name": "",
          "type": "uint256"
        }
      ],
      "stateMutability": "view",
      "type": "function"
    },
    {
      "inputs": [],
      "name": "getTotalSupply",
      "outputs": [
        {
          "internalType": "uint256",
          "name": "",
          "type": "uint256"
        }
      ],
      "stateMutability": "view",
      "type": "function"
    },
    {
      "inputs": [
        {
          "internalType": "address",
          "name": "to",
          "type": "address"
        },
        {
          "internalType": "uint256",
          "name": "amount",
          "type": "uint256"
        }
      ],
      "name": "mint",
      "outputs": [],
      "stateMutability": "nonpayable",
      "type": "function"
    },
    {
      "inputs": [],
      "name": "name",
      "outputs": [
        {
          "internalType": "string",
          "name": "",
          "type": "string"
        }
      ],
      "stateMutability": "view",
      "type": "function"
    },
    {
      "inputs": [
        {
          "internalType": "address",
          "name": "owner",
          "type": "address"
        }
      ],
      "name": "nonces",
      "outputs": [
        {
          "internalType": "uint256",
          "name": "",
          "type": "uint256"
        }
      ],
      "stateMutability": "view",
      "type": "function"
    },
    {
      "inputs": [],
      "name": "owner",
      "outputs": [
        {
          "internalType": "address",
          "name": "",
          "type": "address"
        }
      ],
      "stateMutability": "view",
      "type": "function"
    },
    {
      "inputs": [
        {
          "internalType": "address",
          "name": "owner",
          "type": "address"
        },
        {
          "internalType": "address",
          "name": "spender",
          "type": "address"
        },
        {
          "internalType": "uint256",
          "name": "value",
          "type": "uint256"
        },
        {
          "internalType": "uint256",
          "name": "deadline",
          "type": "uint256"
        },
        {
          "internalType": "uint8",
          "name": "v",
          "type": "uint8"
        },
        {
          "internalType": "bytes32",
          "name": "r",
          "type": "bytes32"
        },
        {
          "internalType": "bytes32",
          "name": "s",
          "type": "bytes32"
        }
      ],
      "name": "permit",
      "outputs": [],
      "stateMutability": "nonpayable",
      "type": "function"
    },
    {
      "inputs": [],
      "name": "renounceOwnership",
      "outputs": [],
      "stateMutability": "nonpayable",
      "type": "function"
    },
    {
      "inputs": [],
      "name": "symbol",
      "outputs": [
        {
          "internalType": "string",
          "name": "",
          "type": "string"
        }
      ],
      "stateMutability": "view",
      "type": "function"
    },
    {
      "inputs": [],
      "name": "totalSupply",
      "outputs": [
        {
          "internalType": "uint256",
          "name": "",
          "type": "uint256"
        }
      ],
      "stateMutability": "view",
      "type": "function"
    },
    {
      "inputs": [
        {
          "internalType": "address",
          "name": "to",
          "type": "address"
        },
        {
          "internalType": "uint256",
          "name": "value",
          "type": "uint256"
        }
      ],
      "name": "transfer",
      "outputs": [
        {
          "internalType": "bool",
          "name": "",
          "type": "bool"
        }
      ],
      "stateMutability": "nonpayable",
      "type": "function"
    },
    {
      "inputs": [
        {
          "internalType": "address",
          "name": "from",
          "type": "address"
        },
        {
          "internalType": "address",
          "name": "to",
          "type": "address"
        },
        {
          "internalType": "uint256",
          "name": "value",
          "type": "uint256"
        }
      ],
      "name": "transferFrom",
      "outputs": [
        {
          "internalType": "bool",
          "name": "",
          "type": "bool"
        }
      ],
      "stateMutability": "nonpayable",
      "type": "function"
    },
    {
      "inputs": [
        {
          "internalType": "address",
          "name": "newOwner",
          "type": "address"
        }
      ],
      "name": "transferOwnership",
      "outputs": [],
      "stateMutability": "nonpayable",
      "type": "function"
    }
  ],
  "bytecode": "0x61016060405234801561001157600080fd5b5060405161304638038061304683398181016040528101906100339190610797565b6040518060400160405280600681526020017f70616e6461730000000000000000000000000000000000000000000000000000815250806040518060400160405280600181526020017f3100000000000000000000000000000000000000000000000000000000000000815250836040518060400160405280600681526020017f70616e64617300000000000000000000000000000000000000000000000000008152506040518060400160405280600381526020017f706e640000000000000000000000000000000000000000000000000000000000815250816003908161011c9190610a14565b50806004908161012c9190610a14565b505050600073ffffffffffffffffffffffffffffffffffffffff168173ffffffffffffffffffffffffffffffffffffffff16036101a15760006040517f1e4fbdf70000000000000000000000000000000000000000000000000000000081526004016101989190610af5565b60405180910390fd5b6101b08161029b60201b60201c565b506101c560068361036160201b90919060201c565b61012081815250506101e160078261036160201b90919060201c565b6101408181525050818051906020012060e08181525050808051906020012061010081815250504660a0818152505061021e6103b160201b60201c565b608081815250503073ffffffffffffffffffffffffffffffffffffffff1660c08173ffffffffffffffffffffffffffffffffffffffff16815250505050506102953361026e61040c60201b60201c565b600a61027a9190610c7f565b6402540be40061028a9190610cca565b61041560201b60201c565b50610f4b565b6000600560009054906101000a900473ffffffffffffffffffffffffffffffffffffffff16905081600560006101000a81548173ffffffffffffffffffffffffffffffffffffffff021916908373ffffffffffffffffffffffffffffffffffffffff1602179055508173ffffffffffffffffffffffffffffffffffffffff168173ffffffffffffffffffffffffffffffffffffffff167f8be0079c531659141344cd1fd0a4f28419497f9722a3daafe3b4186f6b6457e060405160405180910390a35050565b60006020835110156103835761037c8361049d60201b60201c565b90506103ab565b826103938361050560201b60201c565b60000190816103a29190610a14565b5060ff60001b90505b92915050565b60007f8b73c3c69bb8fe3d512ecc4cf759cc79239f7b179b0ffacaa9a75d522b39400f60e0516101005146306040516020016103f1959493929190610d34565b60405160208183030381529060405280519060200120905090565b60006012905090565b600073ffffffffffffffffffffffffffffffffffffffff168273ffffffffffffffffffffffffffffffffffffffff16036104875760006040517fec442f0500000000000000000000000000000000000000000000000000000000815260040161047e9190610af5565b60405180910390fd5b6104996000838361050f60201b60201c565b5050565b600080829050601f815111156104ea57826040517f305a27a90000000000000000000000000000000000000000000000000000000081526004016104e19190610e0c565b60405180910390fd5b8051816104f690610e5e565b60001c1760001b915050919050565b6000819050919050565b600073ffffffffffffffffffffffffffffffffffffffff168373ffffffffffffffffffffffffffffffffffffffff16036105615780600260008282546105559190610ec5565b92505081905550610634565b60008060008573ffffffffffffffffffffffffffffffffffffffff1673ffffffffffffffffffffffffffffffffffffffff168152602001908152602001600020549050818110156105ed578381836040517fe450d38c0000000000000000000000000000000000000000000000000000000081526004016105e493929190610ef9565b60405180910390fd5b8181036000808673ffffffffffffffffffffffffffffffffffffffff1673ffffffffffffffffffffffffffffffffffffffff16815260200190815260200160002081905550505b600073ffffffffffffffffffffffffffffffffffffffff168273ffffffffffffffffffffffffffffffffffffffff160361067d57806002600082825403925050819055506106ca565b806000808473ffffffffffffffffffffffffffffffffffffffff1673ffffffffffffffffffffffffffffffffffffffff168152602001908152602001600020600082825401925050819055505b8173ffffffffffffffffffffffffffffffffffffffff168373ffffffffffffffffffffffffffffffffffffffff167fddf252ad1be2c89b69c2b068fc378daa952ba7f163c4a11628f55a4df523b3ef836040516107279190610f30565b60405180910390a3505050565b600080fd5b600073ffffffffffffffffffffffffffffffffffffffff82169050919050565b600061076482610739565b9050919050565b61077481610759565b811461077f57600080fd5b50565b6000815190506107918161076b565b92915050565b6000602082840312156107ad576107ac610734565b5b60006107bb84828501610782565b91505092915050565b600081519050919050565b7f4e487b7100000000000000000000000000000000000000000000000000000000600052604160045260246000fd5b7f4e487b7100000000000000000000000000000000000000000000000000000000600052602260045260246000fd5b6000600282049050600182168061084557607f821691505b602082108103610858576108576107fe565b5b50919050565b60008190508160005260206000209050919050565b60006020601f8301049050919050565b600082821b905092915050565b6000600883026108c07fffffffffffffffffffffffffffffffffffffffffffffffffffffffffffffffff82610883565b6108ca8683610883565b95508019841693508086168417925050509392505050565b6000819050919050565b6000819050919050565b600061091161090c610907846108e2565b6108ec565b6108e2565b9050919050565b6000819050919050565b61092b836108f6565b61093f61093782610918565b848454610890565b825550505050565b600090565b610954610947565b61095f818484610922565b505050565b5b818110156109835761097860008261094c565b600181019050610965565b5050565b601f8211156109c8576109998161085e565b6109a284610873565b810160208510156109b1578190505b6109c56109bd85610873565b830182610964565b50505b505050565b600082821c905092915050565b60006109eb600019846008026109cd565b1980831691505092915050565b6000610a0483836109da565b9150826002028217905092915050565b610a1d826107c4565b67ffffffffffffffff811115610a3657610a356107cf565b5b610a40825461082d565b610a4b828285610987565b600060209050601f831160018114610a7e5760008415610a6c578287015190505b610a7685826109f8565b865550610ade565b601f198416610a8c8661085e565b60005b82811015610ab457848901518255600182019150602085019450602081019050610a8f565b86831015610ad15784890151610acd601f8916826109da565b8355505b6001600288020188555050505b505050505050565b610aef81610759565b82525050565b6000602082019050610b0a6000830184610ae6565b92915050565b7f4e487b7100000000000000000000000000000000000000000000000000000000600052601160045260246000fd5b60008160011c9050919050565b6000808291508390505b6001851115610b9657808604811115610b7257610b71610b10565b5b6001851615610b815780820291505b8081029050610b8f85610b3f565b9450610b56565b94509492505050565b600082610baf5760019050610c6b565b81610bbd5760009050610c6b565b8160018114610bd35760028114610bdd57610c0c565b6001915050610c6b565b60ff841115610bef57610bee610b10565b5b8360020a915084821115610c0657610c05610b10565b5b50610c6b565b5060208310610133831016604e8410600b8410161715610c415782820a905083811115610c3c57610c3b610b10565b5b610c6b565b610c4e8484846001610b4c565b92509050818404811115610c6557610c64610b10565b5b81810290505b9392505050565b600060ff82169050919050565b6000610c8a826108e2565b9150610c9583610c72565b9250610cc27fffffffffffffffffffffffffffffffffffffffffffffffffffffffffffffffff8484610b9f565b905092915050565b6000610cd5826108e2565b9150610ce0836108e2565b9250828202610cee816108e2565b91508282048414831517610d0557610d04610b10565b5b5092915050565b6000819050919050565b610d1f81610d0c565b82525050565b610d2e816108e2565b82525050565b600060a082019050610d496000830188610d16565b610d566020830187610d16565b610d636040830186610d16565b610d706060830185610d25565b610d7d6080830184610ae6565b9695505050505050565b600082825260208201905092915050565b60005b83811015610db6578082015181840152602081019050610d9b565b60008484015250505050565b6000601f19601f8301169050919050565b6000610dde826107c4565b610de88185610d87565b9350610df8818560208601610d98565b610e0181610dc2565b840191505092915050565b60006020820190508181036000830152610e268184610dd3565b905092915050565b600081519050919050565b6000819050602082019050919050565b6000610e558251610d0c565b80915050919050565b6000610e6982610e2e565b82610e7384610e39565b9050610e7e81610e49565b92506020821015610ebe57610eb97fffffffffffffffffffffffffffffffffffffffffffffffffffffffffffffffff83602003600802610883565b831692505b5050919050565b6000610ed0826108e2565b9150610edb836108e2565b9250828201905080821115610ef357610ef2610b10565b5b92915050565b6000606082019050610f0e6000830186610ae6565b610f1b6020830185610d25565b610f286040830184610d25565b949350505050565b6000602082019050610f456000830184610d25565b92915050565b60805160a05160c05160e0516101005161012051610140516120a1610fa56000396000610e4601526000610e0b015260006113dd015260006113bc01526000610b3701526000610b8d01526000610bb601526120a16000f3fe608060405234801561001057600080fd5b506004361061012c5760003560e01c806384b0196e116100ad578063c4e41b2211610071578063c4e41b221461033b578063d505accf14610359578063dd62ed3e14610375578063f2fde38b146103a5578063f8b2cb4f146103c15761012c565b806384b0196e1461028f5780638da5cb5b146102b357806395d89b41146102d15780639dc29fac146102ef578063a9059cbb1461030b5761012c565b80633644e515116100f45780633644e515146101eb57806340c10f191461020957806370a0823114610225578063715018a6146102555780637ecebe001461025f5761012c565b806306fdde0314610131578063095ea7b31461014f57806318160ddd1461017f57806323b872dd1461019d578063313ce567146101cd575b600080fd5b6101396103f1565b60405161014691906118ca565b60405180910390f35b61016960048036038101906101649190611985565b610483565b60405161017691906119e0565b60405180910390f35b6101876104a6565b6040516101949190611a0a565b60405180910390f35b6101b760048036038101906101b29190611a25565b6104b0565b6040516101c491906119e0565b60405180910390f35b6101d56104df565b6040516101e29190611a94565b60405180910390f35b6101f36104e8565b6040516102009190611ac8565b60405180910390f35b610223600480360381019061021e9190611985565b6104f7565b005b61023f600480360381019061023a9190611ae3565b61050d565b60405161024c9190611a0a565b60405180910390f35b61025d610555565b005b61027960048036038101906102749190611ae3565b610569565b6040516102869190611a0a565b60405180910390f35b61029761057b565b6040516102aa9796959493929190611c18565b60405180910390f35b6102bb610625565b6040516102c89190611c9c565b60405180910390f35b6102d961064f565b6040516102e691906118ca565b60405180910390f35b61030960048036038101906103049190611985565b6106e1565b005b61032560048036038101906103209190611985565b6106f7565b60405161033291906119e0565b60405180910390f35b61034361071a565b6040516103509190611a0a565b60405180910390f35b610373600480360381019061036e9190611d0f565b610729565b005b61038f600480360381019061038a9190611db1565b610871565b60405161039c9190611a0a565b60405180910390f35b6103bf60048036038101906103ba9190611ae3565b6108f8565b005b6103db60048036038101906103d69190611ae3565b61097e565b6040516103e89190611a0a565b60405180910390f35b60606003805461040090611e20565b80601f016020809104026020016040519081016040528092919081815260200182805461042c90611e20565b80156104795780601f1061044e57610100808354040283529160200191610479565b820191906000526020600020905b81548152906001019060200180831161045c57829003601f168201915b5050505050905090565b60008061048e610990565b905061049b818585610998565b600191505092915050565b6000600254905090565b6000806104bb610990565b90506104c88582856109aa565b6104d3858585610a3f565b60019150509392505050565b60006012905090565b60006104f2610b33565b905090565b6104ff610bea565b6105098282610c71565b5050565b60008060008373ffffffffffffffffffffffffffffffffffffffff1673ffffffffffffffffffffffffffffffffffffffff168152602001908152602001600020549050919050565b61055d610bea565b6105676000610cf3565b565b600061057482610db9565b9050919050565b60006060806000806000606061058f610e02565b610597610e3d565b46306000801b600067ffffffffffffffff8111156105b8576105b7611e51565b5b6040519080825280602002602001820160405280156105e65781602001602082028036833780820191505090505b507f0f00000000000000000000000000000000000000000000000000000000000000959493929190965096509650965096509650965090919293949596565b6000600560009054906101000a900473ffffffffffffffffffffffffffffffffffffffff16905090565b60606004805461065e90611e20565b80601f016020809104026020016040519081016040528092919081815260200182805461068a90611e20565b80156106d75780601f106106ac576101008083540402835291602001916106d7565b820191906000526020600020905b8154815290600101906020018083116106ba57829003601f168201915b5050505050905090565b6106e9610bea565b6106f38282610e78565b5050565b600080610702610990565b905061070f818585610a3f565b600191505092915050565b60006107246104a6565b905090565b8342111561076e57836040517f627913020000000000000000000000000000000000000000000000000000000081526004016107659190611a0a565b60405180910390fd5b60007f6e71edae12b1b97f4d1f60370fef10105fa2faae0126114a169c64845d6126c988888861079d8c610efa565b896040516020016107b396959493929190611e80565b60405160208183030381529060405280519060200120905060006107d682610f51565b905060006107e682878787610f6b565b90508973ffffffffffffffffffffffffffffffffffffffff168173ffffffffffffffffffffffffffffffffffffffff161461085a57808a6040517f4b800e46000000000000000000000000000000000000000000000000000000008152600401610851929190611ee1565b60405180910390fd5b6108658a8a8a610998565b50505050505050505050565b6000600160008473ffffffffffffffffffffffffffffffffffffffff1673ffffffffffffffffffffffffffffffffffffffff16815260200190815260200160002060008373ffffffffffffffffffffffffffffffffffffffff1673ffffffffffffffffffffffffffffffffffffffff16815260200190815260200160002054905092915050565b610900610bea565b600073ffffffffffffffffffffffffffffffffffffffff168173ffffffffffffffffffffffffffffffffffffffff16036109725760006040517f1e4fbdf70000000000000000000000000000000000000000000000000000000081526004016109699190611c9c565b60405180910390fd5b61097b81610cf3565b50565b60006109898261050d565b9050919050565b600033905090565b6109a58383836001610f9b565b505050565b60006109b68484610871565b90507fffffffffffffffffffffffffffffffffffffffffffffffffffffffffffffffff811015610a395781811015610a29578281836040517ffb8f41b2000000000000000000000000000000000000000000000000000000008152600401610a2093929190611f0a565b60405180910390fd5b610a3884848484036000610f9b565b5b50505050565b600073ffffffffffffffffffffffffffffffffffffffff168373ffffffffffffffffffffffffffffffffffffffff1603610ab15760006040517f96c6fd1e000000000000000000000000000000000000000000000000000000008152600401610aa89190611c9c565b60405180910390fd5b600073ffffffffffffffffffffffffffffffffffffffff168273ffffffffffffffffffffffffffffffffffffffff1603610b235760006040517fec442f05000000000000000000000000000000000000000000000000000000008152600401610b1a9190611c9c565b60405180910390fd5b610b2e838383611172565b505050565b60007f000000000000000000000000000000000000000000000000000000000000000073ffffffffffffffffffffffffffffffffffffffff163073ffffffffffffffffffffffffffffffffffffffff16148015610baf57507f000000000000000000000000000000000000000000000000000000000000000046145b15610bdc577f00000000000000000000000000000000000000000000000000000000000000009050610be7565b610be4611397565b90505b90565b610bf2610990565b73ffffffffffffffffffffffffffffffffffffffff16610c10610625565b73ffffffffffffffffffffffffffffffffffffffff1614610c6f57610c33610990565b6040517f118cdaa7000000000000000000000000000000000000000000000000000000008152600401610c669190611c9c565b60405180910390fd5b565b600073ffffffffffffffffffffffffffffffffffffffff168273ffffffffffffffffffffffffffffffffffffffff1603610ce35760006040517fec442f05000000000000000000000000000000000000000000000000000000008152600401610cda9190611c9c565b60405180910390fd5b610cef60008383611172565b5050565b6000600560009054906101000a900473ffffffffffffffffffffffffffffffffffffffff16905081600560006101000a81548173ffffffffffffffffffffffffffffffffffffffff021916908373ffffffffffffffffffffffffffffffffffffffff1602179055508173ffffffffffffffffffffffffffffffffffffffff168173ffffffffffffffffffffffffffffffffffffffff167f8be0079c531659141344cd1fd0a4f28419497f9722a3daafe3b4186f6b6457e060405160405180910390a35050565b6000600860008373ffffffffffffffffffffffffffffffffffffffff1673ffffffffffffffffffffffffffffffffffffffff168152602001908152602001600020549050919050565b6060610e3860067f000000000000000000000000000000000000000000000000000000000000000061142d90919063ffffffff16565b905090565b6060610e7360077f000000000000000000000000000000000000000000000000000000000000000061142d90919063ffffffff16565b905090565b600073ffffffffffffffffffffffffffffffffffffffff168273ffffffffffffffffffffffffffffffffffffffff1603610eea5760006040517f96c6fd1e000000000000000000000000000000000000000000000000000000008152600401610ee19190611c9c565b60405180910390fd5b610ef682600083611172565b5050565b6000600860008373ffffffffffffffffffffffffffffffffffffffff1673ffffffffffffffffffffffffffffffffffffffff1681526020019081526020016000206000815480929190600101919050559050919050565b6000610f64610f5e610b33565b836114dd565b9050919050565b600080600080610f7d8888888861151e565b925092509250610f8d8282611612565b829350505050949350505050565b600073ffffffffffffffffffffffffffffffffffffffff168473ffffffffffffffffffffffffffffffffffffffff160361100d5760006040517fe602df050000000000000000000000000000000000000000000000000000000081526004016110049190611c9c565b60405180910390fd5b600073ffffffffffffffffffffffffffffffffffffffff168373ffffffffffffffffffffffffffffffffffffffff160361107f5760006040517f94280d620000000000000000000000000000000000000000000000000000000081526004016110769190611c9c565b60405180910390fd5b81600160008673ffffffffffffffffffffffffffffffffffffffff1673ffffffffffffffffffffffffffffffffffffffff16815260200190815260200160002060008573ffffffffffffffffffffffffffffffffffffffff1673ffffffffffffffffffffffffffffffffffffffff16815260200190815260200160002081905550801561116c578273ffffffffffffffffffffffffffffffffffffffff168473ffffffffffffffffffffffffffffffffffffffff167f8c5be1e5ebec7d5bd14f71427d1e84f3dd0314c0f7b2291e5b200ac8c7c3b925846040516111639190611a0a565b60405180910390a35b50505050565b600073ffffffffffffffffffffffffffffffffffffffff168373ffffffffffffffffffffffffffffffffffffffff16036111c45780600260008282546111b89190611f70565b92505081905550611297565b60008060008573ffffffffffffffffffffffffffffffffffffffff1673ffffffffffffffffffffffffffffffffffffffff16815260200190815260200160002054905081811015611250578381836040517fe450d38c00000000000000000000000000000000000000000000000000000000815260040161124793929190611f0a565b60405180910390fd5b8181036000808673ffffffffffffffffffffffffffffffffffffffff1673ffffffffffffffffffffffffffffffffffffffff16815260200190815260200160002081905550505b600073ffffffffffffffffffffffffffffffffffffffff168273ffffffffffffffffffffffffffffffffffffffff16036112e0578060026000828254039250508190555061132d565b806000808473ffffffffffffffffffffffffffffffffffffffff1673ffffffffffffffffffffffffffffffffffffffff168152602001908152602001600020600082825401925050819055505b8173ffffffffffffffffffffffffffffffffffffffff168373ffffffffffffffffffffffffffffffffffffffff167fddf252ad1be2c89b69c2b068fc378daa952ba7f163c4a11628f55a4df523b3ef8360405161138a9190611a0a565b60405180910390a3505050565b60007f8b73c3c69bb8fe3d512ecc4cf759cc79239f7b179b0ffacaa9a75d522b39400f7f00000000000000000000000000000000000000000000000000000000000000007f00000000000000000000000000000000000000000000000000000000000000004630604051602001611412959493929190611fa4565b60405160208183030381529060405280519060200120905090565b606060ff60001b831461144a5761144383611776565b90506114d7565b81805461145690611e20565b80601f016020809104026020016040519081016040528092919081815260200182805461148290611e20565b80156114cf5780601f106114a4576101008083540402835291602001916114cf565b820191906000526020600020905b8154815290600101906020018083116114b257829003601f168201915b505050505090505b92915050565b60006040517f190100000000000000000000000000000000000000000000000000000000000081528360028201528260228201526042812091505092915050565b60008060007f7fffffffffffffffffffffffffffffff5d576e7357a4501ddfe92f46681b20a08460001c111561155e576000600385925092509250611608565b6000600188888888604051600081526020016040526040516115839493929190611ff7565b6020604051602081039080840390855afa1580156115a5573d6000803e3d6000fd5b505050602060405103519050600073ffffffffffffffffffffffffffffffffffffffff168173ffffffffffffffffffffffffffffffffffffffff16036115f957600060016000801b93509350935050611608565b8060008060001b935093509350505b9450945094915050565b600060038111156116265761162561203c565b5b8260038111156116395761163861203c565b5b031561177257600160038111156116535761165261203c565b5b8260038111156116665761166561203c565b5b0361169d576040517ff645eedf00000000000000000000000000000000000000000000000000000000815260040160405180910390fd5b600260038111156116b1576116b061203c565b5b8260038111156116c4576116c361203c565b5b03611709578060001c6040517ffce698f70000000000000000000000000000000000000000000000000000000081526004016117009190611a0a565b60405180910390fd5b60038081111561171c5761171b61203c565b5b82600381111561172f5761172e61203c565b5b0361177157806040517fd78bce0c0000000000000000000000000000000000000000000000000000000081526004016117689190611ac8565b60405180910390fd5b5b5050565b60606000611783836117ea565b90506000602067ffffffffffffffff8111156117a2576117a1611e51565b5b6040519080825280601f01601f1916602001820160405280156117d45781602001600182028036833780820191505090505b5090508181528360208201528092505050919050565b60008060ff8360001c169050601f811115611831576040517fb3512b0c00000000000000000000000000000000000000000000000000000000815260040160405180910390fd5b80915050919050565b600081519050919050565b600082825260208201905092915050565b60005b83811015611874578082015181840152602081019050611859565b60008484015250505050565b6000601f19601f8301169050919050565b600061189c8261183a565b6118a68185611845565b93506118b6818560208601611856565b6118bf81611880565b840191505092915050565b600060208201905081810360008301526118e48184611891565b905092915050565b600080fd5b600073ffffffffffffffffffffffffffffffffffffffff82169050919050565b600061191c826118f1565b9050919050565b61192c81611911565b811461193757600080fd5b50565b60008135905061194981611923565b92915050565b6000819050919050565b6119628161194f565b811461196d57600080fd5b50565b60008135905061197f81611959565b92915050565b6000806040838503121561199c5761199b6118ec565b5b60006119aa8582860161193a565b92505060206119bb85828601611970565b9150509250929050565b60008115159050919050565b6119da816119c5565b82525050565b60006020820190506119f560008301846119d1565b92915050565b611a048161194f565b82525050565b6000602082019050611a1f60008301846119fb565b92915050565b600080600060608486031215611a3e57611a3d6118ec565b5b6000611a4c8682870161193a565b9350506020611a5d8682870161193a565b9250506040611a6e86828701611970565b9150509250925092565b600060ff82169050919050565b611a8e81611a78565b82525050565b6000602082019050611aa96000830184611a85565b92915050565b6000819050919050565b611ac281611aaf565b82525050565b6000602082019050611add6000830184611ab9565b92915050565b600060208284031215611af957611af86118ec565b5b6000611b078482850161193a565b91505092915050565b60007fff0000000000000000000000000000000000000000000000000000000000000082169050919050565b611b4581611b10565b82525050565b611b5481611911565b82525050565b600081519050919050565b600082825260208201905092915050565b6000819050602082019050919050565b611b8f8161194f565b82525050565b6000611ba18383611b86565b60208301905092915050565b6000602082019050919050565b6000611bc582611b5a565b611bcf8185611b65565b9350611bda83611b76565b8060005b83811015611c0b578151611bf28882611b95565b9750611bfd83611bad565b925050600181019050611bde565b5085935050505092915050565b600060e082019050611c2d600083018a611b3c565b8181036020830152611c3f8189611891565b90508181036040830152611c538188611891565b9050611c6260608301876119fb565b611c6f6080830186611b4b565b611c7c60a0830185611ab9565b81810360c0830152611c8e8184611bba565b905098975050505050505050565b6000602082019050611cb16000830184611b4b565b92915050565b611cc081611a78565b8114611ccb57600080fd5b50565b600081359050611cdd81611cb7565b92915050565b611cec81611aaf565b8114611cf757600080fd5b50565b600081359050611d0981611ce3565b92915050565b600080600080600080600060e0888a031215611d2e57611d2d6118ec565b5b6000611d3c8a828b0161193a565b9750506020611d4d8a828b0161193a565b9650506040611d5e8a828b01611970565b9550506060611d6f8a828b01611970565b9450506080611d808a828b01611cce565b93505060a0611d918a828b01611cfa565b92505060c0611da28a828b01611cfa565b91505092959891949750929550565b60008060408385031215611dc857611dc76118ec565b5b6000611dd68582860161193a565b9250506020611de78582860161193a565b9150509250929050565b7f4e487b7100000000000000000000000000000000000000000000000000000000600052602260045260246000fd5b60006002820490506001821680611e3857607f821691505b602082108103611e4b57611e4a611df1565b5b50919050565b7f4e487b7100000000000000000000000000000000000000000000000000000000600052604160045260246000fd5b600060c082019050611e956000830189611ab9565b611ea26020830188611b4b565b611eaf6040830187611b4b565b611ebc60608301866119fb565b611ec960808301856119fb565b611ed660a08301846119fb565b979650505050505050565b6000604082019050611ef66000830185611b4b565b611f036020830184611b4b565b9392505050565b6000606082019050611f1f6000830186611b4b565b611f2c60208301856119fb565b611f3960408301846119fb565b949350505050565b7f4e487b7100000000000000000000000000000000000000000000000000000000600052601160045260246000fd5b6000611f7b8261194f565b9150611f868361194f565b9250828201905080821115611f9e57611f9d611f41565b5b92915050565b600060a082019050611fb96000830188611ab9565b611fc66020830187611ab9565b611fd36040830186611ab9565b611fe060608301856119fb565b611fed6080830184611b4b565b9695505050505050565b600060808201905061200c6000830187611ab9565b6120196020830186611a85565b6120266040830185611ab9565b6120336060830184611ab9565b95945050505050565b7f4e487b7100000000000000000000000000000000000000000000000000000000600052602160045260246000fdfea2646970667358221220360b0a1bcbf9aee3dfa47aaa889c470a8478a0f5ccbb4639908be92306c4e83b64736f6c634300081c0033",
  "linkReferences": {},
  "deployedLinkReferences": {}
}