{
  "_format": "hh-sol-artifact-1",
  "contractName": "StakingContract",
  "sourceName": "contracts/Staking.sol",
  "abi": [
    {
      "inputs": [
        {
          "internalType": "address",
          "name": "initialOwner",
          "type": "address"
        },
        {
          "internalType": "address",
          "name": "_stakingToken",
          "type": "address"
        },
        {
          "internalType": "uint256",
          "name": "_rewardRate",
          "type": "uint256"
        },
        {
          "internalType": "uint256",
          "name": "_lockupPeriod",
          "type": "uint256"
        }
      ],
      "stateMutability": "nonpayable",
      "type": "constructor"
    },
    {
      "inputs": [
        {
          "internalType": "address",
          "name": "owner",
          "type": "address"
        }
      ],
      "name": "OwnableInvalidOwner",
      "type": "error"
    },
    {
      "inputs": [
        {
          "internalType": "address",
          "name": "account",
          "type": "address"
        }
      ],
      "name": "OwnableUnauthorizedAccount",
      "type": "error"
    },
    {
      "inputs": [],
      "name": "ReentrancyGuardReentrantCall",
      "type": "error"
    },
    {
      "inputs": [
        {
          "internalType": "address",
          "name": "token",
          "type": "address"
        }
      ],
      "name": "SafeERC20FailedOperation",
      "type": "error"
    },
    {
      "anonymous": false,
      "inputs": [
        {
          "indexed": true,
          "internalType": "address",
          "name": "user",
          "type": "address"
        },
        {
          "indexed": false,
          "internalType": "uint256",
          "name": "amount",
          "type": "uint256"
        }
      ],
      "name": "EmergencyWithdraw",
      "type": "event"
    },
    {
      "anonymous": false,
      "inputs": [
        {
          "indexed": true,
          "internalType": "address",
          "name": "previousOwner",
          "type": "address"
        },
        {
          "indexed": true,
          "internalType": "address",
          "name": "newOwner",
          "type": "address"
        }
      ],
      "name": "OwnershipTransferred",
      "type": "event"
    },
    {
      "anonymous": false,
      "inputs": [
        {
          "indexed": true,
          "internalType": "address",
          "name": "user",
          "type": "address"
        },
        {
          "indexed": false,
          "internalType": "uint256",
          "name": "amount",
          "type": "uint256"
        }
      ],
      "name": "RewardClaimed",
      "type": "event"
    },
    {
      "anonymous": false,
      "inputs": [
        {
          "indexed": false,
          "internalType": "uint256",
          "name": "amount",
          "type": "uint256"
        }
      ],
      "name": "RewardPoolFunded",
      "type": "event"
    },
    {
      "anonymous": false,
      "inputs": [
        {
          "indexed": true,
          "internalType": "address",
          "name": "user",
          "type": "address"
        },
        {
          "indexed": false,
          "internalType": "uint256",
          "name": "amount",
          "type": "uint256"
        }
      ],
      "name": "Staked",
      "type": "event"
    },
    {
      "anonymous": false,
      "inputs": [
        {
          "indexed": true,
          "internalType": "address",
          "name": "user",
          "type": "address"
        },
        {
          "indexed": false,
          "internalType": "uint256",
          "name": "amount",
          "type": "uint256"
        }
      ],
      "name": "Unstaked",
      "type": "event"
    },
    {
      "inputs": [
        {
          "internalType": "address",
          "name": "user",
          "type": "address"
        }
      ],
      "name": "availableReward",
      "outputs": [
        {
          "internalType": "uint256",
          "name": "",
          "type": "uint256"
        }
      ],
      "stateMutability": "view",
      "type": "function"
    },
    {
      "inputs": [],
      "name": "claimReward",
      "outputs": [],
      "stateMutability": "nonpayable",
      "type": "function"
    },
    {
      "inputs": [],
      "name": "emergencyWithdraw",
      "outputs": [],
      "stateMutability": "nonpayable",
      "type": "function"
    },
    {
      "inputs": [
        {
          "internalType": "uint256",
          "name": "amount",
          "type": "uint256"
        }
      ],
      "name": "fundRewardPool",
      "outputs": [],
      "stateMutability": "nonpayable",
      "type": "function"
    },
    {
      "inputs": [],
      "name": "getRewardPoolBalance",
      "outputs": [
        {
          "internalType": "uint256",
          "name": "",
          "type": "uint256"
        }
      ],
      "stateMutability": "view",
      "type": "function"
    },
    {
      "inputs": [],
      "name": "getTotalStaked",
      "outputs": [
        {
          "internalType": "uint256",
          "name": "",
          "type": "uint256"
        }
      ],
      "stateMutability": "view",
      "type": "function"
    },
    {
      "inputs": [],
      "name": "lockupPeriod",
      "outputs": [
        {
          "internalType": "uint256",
          "name": "",
          "type": "uint256"
        }
      ],
      "stateMutability": "view",
      "type": "function"
    },
    {
      "inputs": [],
      "name": "owner",
      "outputs": [
        {
          "internalType": "address",
          "name": "",
          "type": "address"
        }
      ],
      "stateMutability": "view",
      "type": "function"
    },
    {
      "inputs": [],
      "name": "renounceOwnership",
      "outputs": [],
      "stateMutability": "nonpayable",
      "type": "function"
    },
    {
      "inputs": [],
      "name": "rewardPool",
      "outputs": [
        {
          "internalType": "uint256",
          "name": "",
          "type": "uint256"
        }
      ],
      "stateMutability": "view",
      "type": "function"
    },
    {
      "inputs": [],
      "name": "rewardRate",
      "outputs": [
        {
          "internalType": "uint256",
          "name": "",
          "type": "uint256"
        }
      ],
      "stateMutability": "view",
      "type": "function"
    },
    {
      "inputs": [
        {
          "internalType": "uint256",
          "name": "amount",
          "type": "uint256"
        }
      ],
      "name": "stake",
      "outputs": [],
      "stateMutability": "nonpayable",
      "type": "function"
    },
    {
      "inputs": [
        {
          "internalType": "address",
          "name": "user",
          "type": "address"
        }
      ],
      "name": "stakedAmount",
      "outputs": [
        {
          "internalType": "uint256",
          "name": "",
          "type": "uint256"
        }
      ],
      "stateMutability": "view",
      "type": "function"
    },
    {
      "inputs": [
        {
          "internalType": "address",
          "name": "",
          "type": "address"
        }
      ],
      "name": "stakes",
      "outputs": [
        {
          "internalType": "uint256",
          "name": "amount",
          "type": "uint256"
        },
        {
          "internalType": "uint256",
          "name": "rewardDebt",
          "type": "uint256"
        },
        {
          "internalType": "uint256",
          "name": "lastStakeTime",
          "type": "uint256"
        }
      ],
      "stateMutability": "view",
      "type": "function"
    },
    {
      "inputs": [],
      "name": "stakingToken",
      "outputs": [
        {
          "internalType": "contract IERC20",
          "name": "",
          "type": "address"
        }
      ],
      "stateMutability": "view",
      "type": "function"
    },
    {
      "inputs": [],
      "name": "totalRewards",
      "outputs": [
        {
          "internalType": "uint256",
          "name": "",
          "type": "uint256"
        }
      ],
      "stateMutability": "view",
      "type": "function"
    },
    {
      "inputs": [],
      "name": "totalStaked",
      "outputs": [
        {
          "internalType": "uint256",
          "name": "",
          "type": "uint256"
        }
      ],
      "stateMutability": "view",
      "type": "function"
    },
    {
      "inputs": [
        {
          "internalType": "address",
          "name": "newOwner",
          "type": "address"
        }
      ],
      "name": "transferOwnership",
      "outputs": [],
      "stateMutability": "nonpayable",
      "type": "function"
    },
    {
      "inputs": [
        {
          "internalType": "uint256",
          "name": "amount",
          "type": "uint256"
        }
      ],
      "name": "unstake",
      "outputs": [],
      "stateMutability": "nonpayable",
      "type": "function"
    },
    {
      "inputs": [
        {
          "internalType": "uint256",
          "name": "newLockupPeriod",
          "type": "uint256"
        }
      ],
      "name": "updateLockupPeriod",
      "outputs": [],
      "stateMutability": "nonpayable",
      "type": "function"
    },
    {
      "inputs": [
        {
          "internalType": "uint256",
          "name": "newRewardRate",
          "type": "uint256"
        }
      ],
      "name": "updateRewardRate",
      "outputs": [],
      "stateMutability": "nonpayable",
      "type": "function"
    }
  ],
  "bytecode": "0x608060405234801561001057600080fd5b50604051611b21380380611b2183398181016040528101906100329190610271565b83600073ffffffffffffffffffffffffffffffffffffffff168173ffffffffffffffffffffffffffffffffffffffff16036100a55760006040517f1e4fbdf700000000000000000000000000000000000000000000000000000000815260040161009c91906102e7565b60405180910390fd5b6100b48161011460201b60201c565b506001808190555082600260006101000a81548173ffffffffffffffffffffffffffffffffffffffff021916908373ffffffffffffffffffffffffffffffffffffffff160217905550816003819055508060048190555050505050610302565b60008060009054906101000a900473ffffffffffffffffffffffffffffffffffffffff169050816000806101000a81548173ffffffffffffffffffffffffffffffffffffffff021916908373ffffffffffffffffffffffffffffffffffffffff1602179055508173ffffffffffffffffffffffffffffffffffffffff168173ffffffffffffffffffffffffffffffffffffffff167f8be0079c531659141344cd1fd0a4f28419497f9722a3daafe3b4186f6b6457e060405160405180910390a35050565b600080fd5b600073ffffffffffffffffffffffffffffffffffffffff82169050919050565b6000610208826101dd565b9050919050565b610218816101fd565b811461022357600080fd5b50565b6000815190506102358161020f565b92915050565b6000819050919050565b61024e8161023b565b811461025957600080fd5b50565b60008151905061026b81610245565b92915050565b6000806000806080858703121561028b5761028a6101d8565b5b600061029987828801610226565b94505060206102aa87828801610226565b93505060406102bb8782880161025c565b92505060606102cc8782880161025c565b91505092959194509250565b6102e1816101fd565b82525050565b60006020820190506102fc60008301846102d8565b92915050565b611810806103116000396000f3fe608060405234801561001057600080fd5b50600436106101375760003560e01c8063817b1cd2116100b8578063b88a802f1161007c578063b88a802f14610306578063d854fb7514610310578063db2e21bc1461032e578063ee947a7c14610338578063f2fde38b14610356578063f99318551461037257610137565b8063817b1cd21461027657806387c313c1146102945780638da5cb5b146102b05780639ef3a261146102ce578063a694fc3a146102ea57610137565b80632e17de78116100ff5780632e17de78146101f657806366666aa914610212578063715018a61461023057806372f702f31461023a5780637b0a47ee1461025857610137565b8063066fd8991461013c5780630917e7761461016c5780630e15561a1461018a57806316934fc4146101a85780631d583e0d146101da575b600080fd5b6101566004803603810190610151919061127f565b6103a2565b60405161016391906112c5565b60405180910390f35b6101746103b4565b60405161018191906112c5565b60405180910390f35b6101926103be565b60405161019f91906112c5565b60405180910390f35b6101c260048036038101906101bd919061127f565b6103c4565b6040516101d1939291906112e0565b60405180910390f35b6101f460048036038101906101ef9190611343565b6103ee565b005b610210600480360381019061020b9190611343565b6104db565b005b61021a610760565b60405161022791906112c5565b60405180910390f35b610238610766565b005b61024261077a565b60405161024f91906113cf565b60405180910390f35b6102606107a0565b60405161026d91906112c5565b60405180910390f35b61027e6107a6565b60405161028b91906112c5565b60405180910390f35b6102ae60048036038101906102a99190611343565b6107ac565b005b6102b86107be565b6040516102c591906113f9565b60405180910390f35b6102e860048036038101906102e39190611343565b6107e7565b005b61030460048036038101906102ff9190611343565b6107f9565b005b61030e610976565b005b610318610991565b60405161032591906112c5565b60405180910390f35b61033661099b565b005b610340610b34565b60405161034d91906112c5565b60405180910390f35b610370600480360381019061036b919061127f565b610b3a565b005b61038c6004803603810190610387919061127f565b610bc0565b60405161039991906112c5565b60405180910390f35b60006103ad82610c0c565b9050919050565b6000600654905090565b60075481565b60056020528060005260406000206000915090508060000154908060010154908060020154905083565b6103f6610d05565b60008111610439576040517f08c379a000000000000000000000000000000000000000000000000000000000815260040161043090611471565b60405180910390fd5b610488333083600260009054906101000a900473ffffffffffffffffffffffffffffffffffffffff1673ffffffffffffffffffffffffffffffffffffffff16610d8c909392919063ffffffff16565b806008600082825461049a91906114c0565b925050819055507fb1d234dd8081b3e00565c8b359ca6fa117fc7b024f75d85b6830b190bef5c76b816040516104d091906112c5565b60405180910390a150565b6104e3610e0e565b33600454600560008373ffffffffffffffffffffffffffffffffffffffff1673ffffffffffffffffffffffffffffffffffffffff1681526020019081526020016000206002015461053491906114c0565b421015610576576040517f08c379a000000000000000000000000000000000000000000000000000000000815260040161056d90611540565b60405180910390fd5b600082116105b9576040517f08c379a00000000000000000000000000000000000000000000000000000000081526004016105b090611471565b60405180910390fd5b81600560003373ffffffffffffffffffffffffffffffffffffffff1673ffffffffffffffffffffffffffffffffffffffff16815260200190815260200160002060000154101561063e576040517f08c379a0000000000000000000000000000000000000000000000000000000008152600401610635906115ac565b60405180910390fd5b61064733610e54565b81600560003373ffffffffffffffffffffffffffffffffffffffff1673ffffffffffffffffffffffffffffffffffffffff168152602001908152602001600020600001600082825461069991906115cc565b9250508190555081600660008282546106b291906115cc565b925050819055506107063383600260009054906101000a900473ffffffffffffffffffffffffffffffffffffffff1673ffffffffffffffffffffffffffffffffffffffff166110269092919063ffffffff16565b3373ffffffffffffffffffffffffffffffffffffffff167f0f5bb82176feb1b5e747e28471aa92156a04d9f3ab9f45f28e2d704232b93f758360405161074c91906112c5565b60405180910390a25061075d6110a5565b50565b60085481565b61076e610d05565b61077860006110ae565b565b600260009054906101000a900473ffffffffffffffffffffffffffffffffffffffff1681565b60035481565b60065481565b6107b4610d05565b8060048190555050565b60008060009054906101000a900473ffffffffffffffffffffffffffffffffffffffff16905090565b6107ef610d05565b8060038190555050565b610801610e0e565b60008111610844576040517f08c379a000000000000000000000000000000000000000000000000000000000815260040161083b90611471565b60405180910390fd5b610893333083600260009054906101000a900473ffffffffffffffffffffffffffffffffffffffff1673ffffffffffffffffffffffffffffffffffffffff16610d8c909392919063ffffffff16565b6000600560003373ffffffffffffffffffffffffffffffffffffffff1673ffffffffffffffffffffffffffffffffffffffff16815260200190815260200160002090506108df33610e54565b818160000160008282546108f391906114c0565b92505081905550428160020181905550816006600082825461091591906114c0565b925050819055503373ffffffffffffffffffffffffffffffffffffffff167f9e71bc8eea02a63969f509818f2dafb9254532904319f9dbda79b67bd34a5f3d8360405161096291906112c5565b60405180910390a2506109736110a5565b50565b61097e610e0e565b61098733610e54565b61098f6110a5565b565b6000600854905090565b6109a3610e0e565b6000600560003373ffffffffffffffffffffffffffffffffffffffff1673ffffffffffffffffffffffffffffffffffffffff16815260200190815260200160002060000154905060008111610a2d576040517f08c379a0000000000000000000000000000000000000000000000000000000008152600401610a249061164c565b60405180910390fd5b6000600560003373ffffffffffffffffffffffffffffffffffffffff1673ffffffffffffffffffffffffffffffffffffffff168152602001908152602001600020600001819055508060066000828254610a8791906115cc565b92505081905550610adb3382600260009054906101000a900473ffffffffffffffffffffffffffffffffffffffff1673ffffffffffffffffffffffffffffffffffffffff166110269092919063ffffffff16565b3373ffffffffffffffffffffffffffffffffffffffff167f5fafa99d0643513820be26656b45130b01e1c03062e1266bf36f88cbd3bd969582604051610b2191906112c5565b60405180910390a250610b326110a5565b565b60045481565b610b42610d05565b600073ffffffffffffffffffffffffffffffffffffffff168173ffffffffffffffffffffffffffffffffffffffff1603610bb45760006040517f1e4fbdf7000000000000000000000000000000000000000000000000000000008152600401610bab91906113f9565b60405180910390fd5b610bbd816110ae565b50565b6000600560008373ffffffffffffffffffffffffffffffffffffffff1673ffffffffffffffffffffffffffffffffffffffff168152602001908152602001600020600001549050919050565b600080600560008473ffffffffffffffffffffffffffffffffffffffff1673ffffffffffffffffffffffffffffffffffffffff168152602001908152602001600020604051806060016040529081600082015481526020016001820154815260200160028201548152505090506000816000015103610c8f576000915050610d00565b6000816040015142610ca191906115cc565b90506000670de0b6b3a7640000826003548560000151610cc1919061166c565b610ccb919061166c565b610cd591906116dd565b905082602001518111610ce9576000610cfa565b826020015181610cf991906115cc565b5b93505050505b919050565b610d0d611172565b73ffffffffffffffffffffffffffffffffffffffff16610d2b6107be565b73ffffffffffffffffffffffffffffffffffffffff1614610d8a57610d4e611172565b6040517f118cdaa7000000000000000000000000000000000000000000000000000000008152600401610d8191906113f9565b60405180910390fd5b565b610e08848573ffffffffffffffffffffffffffffffffffffffff166323b872dd868686604051602401610dc19392919061170e565b604051602081830303815290604052915060e01b6020820180517bffffffffffffffffffffffffffffffffffffffffffffffffffffffff838183161783525050505061117a565b50505050565b600260015403610e4a576040517f3ee5aeb500000000000000000000000000000000000000000000000000000000815260040160405180910390fd5b6002600181905550565b6000610e5f82610c0c565b905060008103610e6f5750611023565b806008541015610eb4576040517f08c379a0000000000000000000000000000000000000000000000000000000008152600401610eab90611791565b60405180910390fd5b80600560008473ffffffffffffffffffffffffffffffffffffffff1673ffffffffffffffffffffffffffffffffffffffff1681526020019081526020016000206001016000828254610f0691906114c0565b9250508190555042600560008473ffffffffffffffffffffffffffffffffffffffff1673ffffffffffffffffffffffffffffffffffffffff168152602001908152602001600020600201819055508060076000828254610f6691906114c0565b925050819055508060086000828254610f7f91906115cc565b92505081905550610fd38282600260009054906101000a900473ffffffffffffffffffffffffffffffffffffffff1673ffffffffffffffffffffffffffffffffffffffff166110269092919063ffffffff16565b8173ffffffffffffffffffffffffffffffffffffffff167f106f923f993c2149d49b4255ff723acafa1f2d94393f561d3eda32ae348f72418260405161101991906112c5565b60405180910390a2505b50565b6110a0838473ffffffffffffffffffffffffffffffffffffffff1663a9059cbb85856040516024016110599291906117b1565b604051602081830303815290604052915060e01b6020820180517bffffffffffffffffffffffffffffffffffffffffffffffffffffffff838183161783525050505061117a565b505050565b60018081905550565b60008060009054906101000a900473ffffffffffffffffffffffffffffffffffffffff169050816000806101000a81548173ffffffffffffffffffffffffffffffffffffffff021916908373ffffffffffffffffffffffffffffffffffffffff1602179055508173ffffffffffffffffffffffffffffffffffffffff168173ffffffffffffffffffffffffffffffffffffffff167f8be0079c531659141344cd1fd0a4f28419497f9722a3daafe3b4186f6b6457e060405160405180910390a35050565b600033905090565b600080602060008451602086016000885af18061119d576040513d6000823e3d81fd5b3d9250600051915050600082146111b85760018114156111d4565b60008473ffffffffffffffffffffffffffffffffffffffff163b145b1561121657836040517f5274afe700000000000000000000000000000000000000000000000000000000815260040161120d91906113f9565b60405180910390fd5b50505050565b600080fd5b600073ffffffffffffffffffffffffffffffffffffffff82169050919050565b600061124c82611221565b9050919050565b61125c81611241565b811461126757600080fd5b50565b60008135905061127981611253565b92915050565b6000602082840312156112955761129461121c565b5b60006112a38482850161126a565b91505092915050565b6000819050919050565b6112bf816112ac565b82525050565b60006020820190506112da60008301846112b6565b92915050565b60006060820190506112f560008301866112b6565b61130260208301856112b6565b61130f60408301846112b6565b949350505050565b611320816112ac565b811461132b57600080fd5b50565b60008135905061133d81611317565b92915050565b6000602082840312156113595761135861121c565b5b60006113678482850161132e565b91505092915050565b6000819050919050565b600061139561139061138b84611221565b611370565b611221565b9050919050565b60006113a78261137a565b9050919050565b60006113b98261139c565b9050919050565b6113c9816113ae565b82525050565b60006020820190506113e460008301846113c0565b92915050565b6113f381611241565b82525050565b600060208201905061140e60008301846113ea565b92915050565b600082825260208201905092915050565b7f416d6f756e74206d7573742062652067726561746572207468616e2030000000600082015250565b600061145b601d83611414565b915061146682611425565b602082019050919050565b6000602082019050818103600083015261148a8161144e565b9050919050565b7f4e487b7100000000000000000000000000000000000000000000000000000000600052601160045260246000fd5b60006114cb826112ac565b91506114d6836112ac565b92508282019050808211156114ee576114ed611491565b5b92915050565b7f4c6f636b757020706572696f64206e6f74207061737365640000000000000000600082015250565b600061152a601883611414565b9150611535826114f4565b602082019050919050565b600060208201905081810360008301526115598161151d565b9050919050565b7f496e73756666696369656e74207374616b65642062616c616e63650000000000600082015250565b6000611596601b83611414565b91506115a182611560565b602082019050919050565b600060208201905081810360008301526115c581611589565b9050919050565b60006115d7826112ac565b91506115e2836112ac565b92508282039050818111156115fa576115f9611491565b5b92915050565b7f4e6f207374616b656420746f6b656e7320746f20776974686472617700000000600082015250565b6000611636601c83611414565b915061164182611600565b602082019050919050565b6000602082019050818103600083015261166581611629565b9050919050565b6000611677826112ac565b9150611682836112ac565b9250828202611690816112ac565b915082820484148315176116a7576116a6611491565b5b5092915050565b7f4e487b7100000000000000000000000000000000000000000000000000000000600052601260045260246000fd5b60006116e8826112ac565b91506116f3836112ac565b925082611703576117026116ae565b5b828204905092915050565b600060608201905061172360008301866113ea565b61173060208301856113ea565b61173d60408301846112b6565b949350505050565b7f496e73756666696369656e742072657761726420706f6f6c0000000000000000600082015250565b600061177b601883611414565b915061178682611745565b602082019050919050565b600060208201905081810360008301526117aa8161176e565b9050919050565b60006040820190506117c660008301856113ea565b6117d360208301846112b6565b939250505056fea2646970667358221220b9f6d08c9bfc62fffb2e5d812fe0f7bcaef2146da293f4a09eb6d8f11f0fb2ea64736f6c634300081c0033",
  "linkReferences": {},
  "deployedLinkReferences": {}
}